:020000040800F2
:100000001008002089010008E91D000851160008A9
:10001000291D0008590300083522000800000000CF
:10002000000000000000000000000000211E000889
:100030005B03000800000000EB1D0008231E000801
:10004000A3010008A3010008A3010008A301000800
:10005000A3010008A3010008A3010008A3010008F0
:10006000A3010008A3010008A3010008A3010008E0
:10007000A3010008A3010008A3010008A3010008D0
:10008000A3010008A3010008A3010008A3010008C0
:10009000A3010008A3010008A3010008A3010008B0
:1000A000A3010008A3010008A3010008A3010008A0
:1000B000A3010008A3010008A3010008A301000890
:1000C000A3010008A3010008A3010008A301000880
:1000D000A3010008A3010008A3010008A301000870
:1000E000A3010008A3010008A301000800F002F822
:1000F00000F03AF80AA090E8000C82448344AAF188
:100100000107DA4501D100F02FF8AFF2090EBAE885
:100110000F0013F0010F18BFFB1A43F0010318473B
:10012000002E0000202E0000103A24BF78C878C1AD
:10013000FAD8520724BF30C830C144BF04680C60ED
:10014000704700000023002400250026103A28BF35
:1001500078C1FBD8520728BF30C148BF0B60704739
:100160001FB51FBD10B510BD00F05CF81146FFF7BC
:10017000F7FF02F0B9F900F07AF803B4FFF7F2FFE5
:1001800003BC00F07DF8000009488047094800479B
:10019000FEE7FEE7FEE7FEE7FEE7FEE7FEE7FEE737
:1001A000FEE7FEE704480549054A064B7047000094
:1001B0007F1E0008ED00000810020020100800203B
:1001C00010040020100400204FF0000200B5134678
:1001D00094469646203922BFA0E80C50A0E80C5067
:1001E000B1F12001BFF4F7AF090728BFA0E80C5018
:1001F00048BF0CC05DF804EB890028BF40F8042B11
:1002000008BF704748BF20F8022B11F0804F18BF7D
:1002100000F8012B704770477047704700487047DF
:10022000AC0100207546FFF7F9FFAE4605006946B0
:10023000534620F00700854618B020B5FFF7B2FFFF
:10024000BDE820404FF000064FF000074FF00008D7
:100250004FF0000B21F00701AC46ACE8C009ACE858
:10026000C009ACE8C009ACE8C0098D46704710B5BC
:100270000446AFF300802046BDE81040FFF77DBF85
:1002800001491820ABBEFEE726000200704710F1BE
:10029000FF4F01D380F00040704700002DE9F04788
:1002A0004FF000094F464D464E464946484601F03C
:1002B0003DFD4FF4487000F057F8244C4FF4967809
:1002C00001F05AFC00BBB4F90A0002F0C7FB8246F9
:1002D000B4F9080002F0C2FB514601F0D7FF1C49F7
:1002E00002F01CFC01466061484602F065FA814656
:1002F000B4F90C0002F0B2FB164902F0D1FA39460B
:1003000002F05AFA07466D1C032000F02DF8761C07
:100310004645D5DB002D10DD284602F09FFB054643
:100320002946484602F0BCFA06466062294638462D
:1003300002F0B6FAC4E9070603E000206062E0615B
:100340002062BDE8F04701F061BD00000000002020
:10035000E62E654200000343FEE770470021084691
:1003600001F0E4FC72B6FEE770B5044600F090F9C7
:100370000546601C02D004480078044400F088F967
:10038000401BA042FAD370BD600000202DE9F0436D
:1003900000233E4F0F2573E001229A400A406DD0A2
:1003A00023F00304E619D6F808809C074FEA147C72
:1003B00005FA0CF909EA0804DFF8D480404502D1B7
:1003C0004FF0000816E0DFF8CC80404502D14FF036
:1003D00001080FE0DFF8C080404502D14FF002086D
:1003E00008E0DFF8B880404502D14FF0030801E093
:1003F0004FF0040808FA0CF8A04522D1284CD4F894
:1004000000C02CEA020CC4F800C0241DD4F800C0BF
:100410002CEA020CC4F800C0214C0C34D4F800C003
:100420002CEA020CC4F800C0241FD4F800C02CEA47
:10043000020CC4F800C0D6F808C02CEA090CC6F8B3
:1004400008C0FF2A01D8064601E000F104064FEA81
:10045000830401D9A4F12004D6F800C005FA04F8F9
:100460002CEA080C4FF0040808FA04F84CEA080CCF
:10047000C6F800C0C46824EA0204C46003F10103A2
:1004800031FA03F288D1BDE8F0830000000001409A
:1004900000080140000C0140001001400014014020
:1004A000000401402DE9F84FDFF8B8910024A9F1CC
:1004B000040B23460F2709F1040AABF1040EC9E02F
:1004C0000125A5402A40AA427DD1674ED1F804C03B
:1004D000ACEB0608B44532D014DCBCF1030F3AD0C3
:1004E00009DCBCF1000F2AD0BCF1010F1CD0BCF11B
:1004F000020F31D11DE0BCF1110F17D0BCF1120F6A
:100500002AD119E0B8F5881F19D006DCB8F5803F6C
:1005100015D0B8F5801F1FD111E0B8F5001F0ED01F
:10052000B8F5041F18D10AE0CB6815E0CB681B1D95
:1005300012E0CB6808330FE0CB680C330CE08B681B
:100540002BB1012B4FF0080303D0456104E00423D5
:1005500002E0056100E00023FF2A01D8064601E021
:1005600000F104064FEA840501D9A5F12005D6F86B
:10057000008007FA05FC28EA0C0803FA05F548EAAA
:100580000508C6F800804D68ED0062D5374DAE69AC
:1005900046F00106AE61AD6924F0030605F00105E1
:1005A0000095334D06EB050CDCF80850A607360F16
:1005B00007FA06F825EA0805DFF8B880404503D1B8
:1005C0004FF0000817E044E0DFF8AC80404502D16E
:1005D0004FF001080FE0DFF8A480404502D14FF052
:1005E000020808E0DFF89880404502D14FF0030888
:1005F00001E04FF0040808FA06F848EA0508CCF8CC
:1006000008804D68D9F80060ED024D4601D51643CB
:1006100000E096432E604D68DAF80060AD02554662
:1006200001D5164300E096432E604D68DBF800606C
:10063000AD035D4601D5164300E096432E604D683C
:10064000DEF80060ED03754601D5164300E09643E1
:100650002E60641C0D682A46E5407FF431AFBDE88A
:10066000F88F000008040140000011100010024043
:100670000000014000080140000C01400010014052
:10068000001401400AB1016170470904FBE7000052
:1006900001488068704700006000002010B5040029
:1006A00013D0242084F83D002068016821F0010166
:1006B0000160204600F096FA0020206484F83D0096
:1006C00044F8300FA073207310BD012010BD00004E
:1006D00070B5040025D094F83D00002520B984F8B9
:1006E0003C50204600F09AFA242084F83D0020680F
:1006F000016821F0010101602068016841F40041B6
:1007000001602068016821F40041016000F0DEFB17
:100710004D4A6168914201D84C4900E04C498842F9
:1007200001D2012070BD4B492368B0FBF1F15E6836
:1007300026F03F060E435E606368934206D94FF48D
:10074000967359434FF47A73B1FBF3F12368491C54
:100750001E6A26F03F06314319626168914210D843
:100760004900401EB0FBF1F2521CC2F30B02042AF6
:1007700001D2042022E0B0FBF1F0401CC0F30B00DA
:100780001CE0A268F2B301EBC10303EB0116431EA8
:10079000B3FBF6F35B1C43F480431B0549D092B3D3
:1007A00001EBC10202EB0111401EB0FBF1F0401C55
:1007B000C0F30B0040F4804040F400402168CA6957
:1007C0004CF6FF739A431043C861D4E90710014304
:1007D0002068026822F0C00211430160D4E90301DD
:1007E00001432068826848F2FF339A4311438160D5
:1007F000D4E9050108432168CA6822F0FF021043CA
:10080000C86001E00EE016E02068016841F00101D7
:1008100001602564202084F83D00256384F83E5063
:10082000002070BD01EB4106431EB3FBF6F35B1CD9
:10083000B3E70120C2E701EB4101401EB0FBF1F03C
:10084000401CC0F30B00B7E7A086010080841E00A7
:1008500000093D0040420F002DE9FF4F83B0002505
:10086000DDE910799A4693460446DDF84880009504
:10087000FFF70EFF064694F83D0020287CD119238F
:10088000012288492046009600F0F8FF0028F5D1A3
:1008900094F83C0001286FD0012084F83C002068C7
:1008A0000168C90703D1016841F0010101602068B6
:1008B000016821F400610160222084F83D0040209D
:1008C00084F83E0025646762A4F82A90608D208534
:1008D0007548E062CDE9008653465A4620460499A1
:1008E00000F0CEFE00287CD1208DDFF8C0912027BB
:1008F00068B1012814D00228206801681ED041F494
:10090000806101602068416980690090BCE02068D6
:10091000416981690091016841F400710160B3E0AF
:100920002068016821F48061016072B62068416925
:1009300081690091016841F400710AE041F40061AD
:10094000016072B62068416981690091016821F4F3
:100950008061016062B697E0032865D801280CD059
:10096000022843464FF000024946204600960BD02D
:1009700000F084FFA8BB0CE091E0324641462046DF
:1009800001F022F868BB72E000F078FF48BB72B655
:1009900033E02068016821F48061016072B620684C
:1009A0000069616A0870606A401C6062208D401EA8
:1009B0002085608D401E60853D4846F2A811006884
:1009C000B0FBF1F0C0EBC00000EB80000090401ED7
:1009D000009007D020684069C04340070DD50098BB
:1009E000F5E727E044F8305F6773A573206940F0AE
:1009F0002000206162B625731CE02068016841F484
:100A00000071016020680069616A0870606A401CBA
:100A10006062218D491E2185618D491E618562B606
:100A200021680969017026E032464146204600F0FF
:100A3000CBFF18B1012007B0BDE8F08F2068006936
:100A4000616A0870606A401C6062208D401E81B23D
:100A50002185608D401E608520684269D24352071F
:100A600012D4032903D1016821F480610160206858
:100A70000069616A0870606A401C6062208D401ED7
:100A80002085608D401E6085208D00287FF464AF36
:100A900084F83D7084F83E5084F83C50CBE7022047
:100AA000C9E70000020010000000FFFF0400010081
:100AB0006C0000202DE9FF4F83B09A46DDE91197C5
:100AC00093460446DDF84080FFF7E2FD054694F8C2
:100AD0003D0020287FD1192301224049204600955E
:100AE00000F0CCFE002876D194F83C00012872D0AA
:100AF000012084F83C0020680168C90703D101681F
:100B000041F0010101602068016821F40061016089
:100B1000212084F83D00402084F83E000026266411
:100B2000C4F82480A4F82A90608D20852C48E062C7
:100B3000CDE9007553465A462046049900F01EFE42
:100B400070B930E02A463946204600F075FF58B1AA
:100B5000206C042804D12068016841F40071016010
:100B6000012007B0BDE8F08F606A21680078086155
:100B7000606A401C6062218D491E89B22185628DA8
:100B8000521E628522685369DB435B070BD469B14F
:100B900000781061606A401C6062208D401E2085D4
:100BA000608D401E6085208D0028CBD12A463946B5
:100BB000204600F037FE0028CAD154F83D0B0168EA
:100BC00041F400710160202004F81E09E677667781
:100BD0000020C6E7FFE70220C3E700000200100084
:100BE0000000FFFF10B50068094988420FD109488D
:100BF000C16921F40011C161074C81152046FFF73E
:100C0000C5FB61152046BDE81040FFF7BFBB10BD16
:100C10000054004000100240000C014010B586B0A6
:100C200000210091019102910391006813498842CB
:100C300022D1134CA06940F00800A061A069694668
:100C400000F0080004904FF44070009012200190D2
:100C5000032003900B48FFF725FC0B48416841F047
:100C6000E06141F002014160E06940F40010E061A0
:100C7000E06900F40010049006B010BD005400407C
:100C800000100240000C0140000001400248816851
:100C9000027811448160704760000020074810B559
:100CA000016841F010010160032000F067F80F2097
:100CB00000F006F800F024F8002010BD00200240EB
:100CC00070B50D4D04464FF47A712878B1FBF0F001
:100CD0000A490968B1FBF0F000F0BEFA48B9102CDF
:100CE00007D200222146501E00F028F800206C6038
:100CF00070BD012070BD0000600000206C0000206D
:100D00000C4808B5816941F001018161816901F0F8
:100D100001010091C16941F08051C161C06900F0D9
:100D2000805000900448416821F0E06141F000717A
:100D3000416008BD0010024000000140F0B40E4BBD
:100D40001B680C46C3F30223C3F10705042D00D929
:100D50000425191D072901D2002300E0DB1E01260E
:100D600006FA05F1491E214099409E40761E164024
:100D70003143F0BC01F072BA0CED00E0064900F01E
:100D8000070208684FF6FF03184040EA0220034AB2
:100D900010430860704700000CED00E00000FA0509
:100DA0002DE9F0470F46050061D0434E306800F052
:100DB0000700B84209D2306820F00700384330609D
:100DC000306800F00700B84251D128683B4C8107D9
:100DD00012D5400703D5606840F4E0606060287871
:100DE000000703D5606840F4605060606068A968DF
:100DF00020F0F000084360602878C00728D06868B9
:100E0000012810D02168022810D0890700292EDA85
:100E1000616821F0030101436160FFF739FC8046FE
:100E200041F288390DE021688903EFE78901EDE798
:100E3000FFF72EFCA0EB0801494502D90320BDE8CD
:100E4000F0876068696800F00C00B0EB810FEFD1AB
:100E5000306800F00700B8420BD9306820F0070076
:100E600038433060306800F00700B84201D00120FC
:100E7000E5E72878400705D56068E96820F4E06078
:100E8000084360602878000706D56068296920F467
:100E9000605040EAC100606000F028F86168084ACC
:100EA000C1F30311515CC840064908600648006858
:100EB000FFF706FF0020C2E70020024000100240BA
:100EC000082F00086C000020640000200448054939
:100ED00000684968044AC1F30221515CC840704768
:100EE0006C00002000100240182F00080E4A5168C4
:100EF0000E4801F00C03042B11D0082B0FD10C4825
:100F0000C1F38343C903C05C0AD55168084AC1F3E1
:100F10004041921E515C054A5043B0FBF1F07047CE
:100F200004494843704700000010024000127A0054
:100F3000F82E000800093D002DE9F84F040070D09C
:100F40002078C04DC00749D06868C0F381000128EF
:100F500007D06868C0F38100022809D16868C0031F
:100F600006D52868800339D560680028E7D035E0C9
:100F70006068B0F5803F0BD010B1B0F5A02F11D054
:100F8000286820F480302860286820F4802002E05F
:100F9000286840F480302860606890B1FFF778FBE3
:100FA00006460AE0286840F480202860F0E700BF89
:100FB000FFF76EFB801B642873D828688003F7D581
:100FC0000CE0FFF765FB064605E000BFFFF760FB9E
:100FD000801B6428F0D828688003F7D420789A4EC4
:100FE00080074FF001094FF0000839D5686810F00C
:100FF0000C0F07D06868C0F38100022809D1686827
:10100000C00306D42868800714D52069012808D1B8
:1010100010E02069B0B1C6F80090FFF739FB074631
:1010200005E00AE1FFF734FBC01B0228C4D828689A
:101030008007F7D52868616920F0F80040EAC10010
:1010400028600DE0C6F80080FFF722FB074604E0A9
:10105000FFF71EFBC01B022823D828688007F7D49F
:10106000207800072CD57948A169D9B1C0F8009043
:10107000FFF70EFB074604E0FFF70AFBC01B022840
:101080000FD8686A8007F7D571484FF4FA510068A5
:10109000B0FBF1F0009000BF0098411E0091FAD221
:1010A0000EE080E0C0F80080FFF7F2FA074604E0A7
:1010B000FFF7EEFAC01B022875D8686A8007F7D4DC
:1010C0002078400760D5E8690027C00008D4E869A7
:1010D00040F08050E861E869012700F080500090FE
:1010E0005C480168C90513D40168834641F48071E6
:1010F0000160FFF7CDFA824606E000BFFFF7C8FAAD
:10110000A0EB0A0064284ED8DBF80000C005F5D536
:10111000E06801280AD008B1052813D0286A20F019
:1011200001002862286A20F0040002E0286A40F0EA
:1011300001002862E06841F2883B98B1FFF7A8FA05
:1011400082460BE0286A40F004002862EEE700BF08
:10115000FFF79EFAA0EB0A0159455AD8286A800782
:10116000F6D50CE0FFF794FA824605E0FFF790FA17
:10117000A0EB0A0159454CD8286A8007F6D41FB164
:10118000E86920F08050E861E06988B36968C1F3DC
:101190008101022944D00228C6F8608004D0FFF7FC
:1011A00077FA044638E034E0FFF772FA074604E0C5
:1011B000FFF76EFAC01B02282BD828688001F7D4ED
:1011C000206AB0F5803F05D16868A16820F400303E
:1011D00008436860D4E908010843696821F4741180
:1011E00008436860C6F86090FFF752FA044606E0CC
:1011F00025E000BFFFF74CFA001B022809D8286839
:101200008001F7D51BE000BFFFF742FA001B022860
:1012100002D90320BDE8F88F28688001F4D40EE0DD
:101220000128F7D06868226A00F48031914204D125
:10123000616A00F47010884201D00120EAE70020C2
:10124000E8E70000001002400000424280044242F1
:101250006C0000200070004010B5401EB0F1807F8F
:1012600001D3012010BD4FF0E02460610F21601711
:1012700000F0F4FF0020A06107202061002010BDD5
:1012800070B590F83C20012A26D0012480F83C401B
:10129000022280F83D2003685A689D6822F070069B
:1012A0000A6832435A600D4B02689A4208D0B2F184
:1012B000804F05D00A4B9A4202D00A4B9A4204D181
:1012C000496825F080031943916080F83D40002172
:1012D00080F83C10084670BD022070BD002C014013
:1012E000000400400008004010B5040003D094F84A
:1012F0003D0010B107E0012010BD002084F83C0043
:10130000204600F01FF8022084F83D00211D2068CF
:1013100000F0B6FD012084F8460084F83E0084F811
:101320003F0084F8400084F8410084F8420084F8CB
:10133000430084F8440084F8450084F83D00002010
:1013400010BD000008B50068B0F1804F08D1054815
:10135000C16941F00101C161C06900F00100009064
:1013600008BD00000010024070B5044690F83C0033
:101370000025012817D0012684F83C60022084F85B
:101380003D002068826822F0770222F47F4282606A
:101390000868502838D00DDC20284FD005DC90B3E9
:1013A000102811D14AE0022070BD302846D04028D4
:1013B0000AD13BE060282FD070280DD0B0F5805FB7
:1013C00003D0B0F5005F12D0012584F83D60002005
:1013D00084F83C00284670BDCB68D1E90121206823
:1013E00000F097FD2068816841F0770109E0CB6843
:1013F000D1E90121206800F08CFD2068816841F46A
:1014000080418160E1E719E0CA684968206800F01E
:1014100035FE5021206806E0CA684968206800F05F
:101420003EFE6021206800F07EFDCEE7CA68496874
:10143000206800F023FE40212068F4E7226801467E
:101440001046F0E700B585B00021009101910291AE
:1014500003910068B0F1804F11D10A48816941F0D1
:10146000040181618069694600F0040004900C2049
:1014700000900220019003900348FFF713F805B095
:1014800000BD0000001002400008014070B5044695
:1014900090F83C0000260D4601280FD0012084F86A
:1014A0003C006AB1042A1DD0082A2FD00C2A3FD054
:1014B0000126002084F83C00304670BD022070BD3B
:1014C000206800F039FD2068816941F008018161E0
:1014D0002068816921F004018161206881692A699D
:1014E000114311E0206800F04FFD2068816941F44C
:1014F000006181612068816921F4806181612068D7
:1015000081692A6941EA02218161D2E7206800F0FD
:1015100067FD2068C16941F00801C1612068C169A7
:1015200021F00401C1612068C1692A69114311E0F9
:10153000206800F081FD2068C16941F40061C1614B
:101540002068C16921F48061C1612068C1692A698C
:1015500041EA0221C161ACE710B5040003D094F860
:101560003D0010B107E0012010BD002084F83C00D0
:10157000204600F01EF8022084F83D00211D20685E
:1015800000F07EFC012084F8460084F83E0084F8D8
:101590003F0084F8400084F8410084F8420084F859
:1015A000430084F8440084F8450084F83D0000209E
:1015B00010BD704710B50446022249B104290ED06F
:1015C000082913D094F84100012816D0012010BD3D
:1015D00094F83E000128F9D184F83E200FE094F8F9
:1015E0003F000128F2D184F83F2008E094F8400041
:1015F0000128EBD184F8402001E084F84120012249
:10160000206800F079FC0F492068884203D1426CC1
:1016100042F4004242642068884208D0B0F1804F12
:1016200005D00949884202D00849884204D181681E
:1016300001F00701062903D0016841F001010160B2
:10164000002010BD002C01400004004000080040B4
:10165000FEE701684A69D24352050FD46FF48062F5
:101660004A61002140F8301F2022427381730269D1
:1016700042F00402026101730120704700207047AC
:101680002DE9F84F0446006889460B9D016898468D
:10169000174641F4806101602068016841F480715F
:1016A000016000954FF0011B0022594620460A9B1D
:1016B00000F0E4F84FF4007A40B120680068C005FB
:1016C00001D5C4F840A00320BDE8F88F216809F0D7
:1016D000FE0008612B46284920460A9A00F016F9B8
:1016E000F0BB20684169806900902A4620460A992B
:1016F00000F0A2F940B1206C04283AD120680168BA
:1017000041F40071016034E0FEB2B8F1010F09D07C
:101710002168380A08612A4620460A9900F08CF9A7
:101720000028E8D1206806612A4620460A9900F080
:1017300083F90028DFD12068016841F480710160DD
:1017400000950022594620460A9B00F097F8002891
:10175000B3D1216809F0FF0040F00100086100E00A
:1017600007E02B46044920460A9A00F0CFF80028EB
:10177000AAD00120A8E70000020001002DE9F843EB
:10178000044600680D46DDE908970168984616464C
:1017900041F4807101604B4600224FF00111204658
:1017A000009700F06BF848B120680068C00502D5CA
:1017B0004FF4007020640320BDE8F883216805F031
:1017C000FE0008613B464A461549204600F09EF857
:1017D00088B920684169806900903A4649462046A8
:1017E00000F02AF948B1206C042804D1206801686F
:1017F00041F4007101600120DEE7F5B2B8F1010F9C
:1018000009D02168300A08613A464946204600F06E
:1018100013F90028E7D1206805610020CCE700001B
:101820000200010070B516460D4604461EE0204633
:10183000FFF70FFF08B1012070BD681C16D0FEF73E
:1018400027FF801BA84200D885B920684069C043A3
:1018500040070BD5002044F8300F20216173A0739E
:10186000216941F0200121612073E4E7206840698B
:10187000C0434007DBD4002070BD00002DE9F047D5
:10188000984617460D460446C1F30746DDF82090FA
:101890002AE000BFB8F1FF3F26D0FEF7F9FEA0EB2B
:1018A0000901414502D8B8F1000F1DD12068012E71
:1018B00016D0806925EA00000004000C12D0002038
:1018C000B84211D1002044F8300F20216173A07379
:1018D000216941F02001216120730120BDE8F087DA
:1018E0004069E7E70120EBE72068012E0AD0806914
:1018F00025EA00000004000C06D00020B842C9D040
:101900000020EBE74069F3E70120F7E72DE9F04716
:10191000984616460D4604464FF000094FF0200A3F
:10192000C1F3074723E020684069C043400515D450
:101930002068016841F40071016021686FF48060E3
:101940004861C4F8309084F83DA084F83E90216C42
:1019500041F00401216484F83C9021E0701C06D021
:10196000FEF796FEA0EB0800B04203D816B1012F97
:101970001FD021E02068012F15D0806925EA0000E2
:101980000004000C18D000BF44F8309F84F80DA06C
:1019900084F80E90216941F02001216184F80C90B7
:1019A0000120BDE8F087406925EA00000004000C32
:1019B000EAD12068406901E02068806925EA0000DA
:1019C0000004000CAFD1ECE72DE9F0410025904672
:1019D0000E460446202728E04069C043C0060CD4C8
:1019E00054F8301B6FF01000486144F810596777C5
:1019F000A577206A2062257714E0FEF749FEA0EB68
:101A00000800B04200D886B920684069C04340064B
:101A10000BD544F8305F6773A573206940F0200050
:101A2000206125730120BDE8F08120684169C94328
:101A30004906D1D40020F6E770B516460D46044697
:101A40001EE02046FFF705FE08B1012070BD681CAE
:101A500016D0FEF71DFE801BA84200D885B920686D
:101A60004069C04300060BD5002044F8300F202108
:101A70006173A073216941F0200121612073E4E7C3
:101A800020684069C0430006DBD4002070BD70B5FB
:101A90000E46054681F0004401F00CF901D23046B3
:101AA00070BD2046294601F005F901D2204670BDDF
:101AB000284670BD884202DC4942884200DA084666
:101AC000704700002DE9FE4301262948CDE90006B4
:101AD000642533467522D02102952648FEF7BCFEC8
:101AE000234CA07010B10120BDE8FE832078682847
:101AF00001D00220F8E7DFF878900027677009F13D
:101B00000109CDF80090CDE9016501236B22D021B8
:101B10001848FEF7CFFFE07008B10320E4E76770D4
:101B2000CDF80090CDE90165B8464F4601231B2250
:101B3000D0211048FEF7BEFF84F801800097CDE960
:101B4000016501231C22D0210A48FEF7B3FF0320C0
:101B500060700097CDE9016501231A22D021054864
:101B6000FEF7A8FF3220FEF7FFFB0020BCE70000D5
:101B700000000020800000203EB5124C64200E21A1
:101B80000094CDE9011001233B22D0210E48FEF73D
:101B900063FE0E49087108B101203EBD208840BA9D
:101BA000C880608840BA0881A08840BA48812089EE
:101BB00040BA8881608940BAC881A08940BA088249
:101BC00000203EBD700000208000002000000020AA
:101BD00070B586B0002418480094019402940394D0
:101BE000816941F020018161816901F02001049146
:101BF000816941F004018161816901F0040104916E
:101C0000816941F00801816180690C4E00F0080093
:101C10004FF470450490002229463046FEF732FD0D
:101C200001200095CDE90104022003906946304669
:101C3000FEF738FC06B070BD00100240000C0140F9
:101C40000D4810B50B4901600C49416000214FF46B
:101C500080428160C0E9031241618161C16101621A
:101C6000FEF736FD002803D0BDE81040FEF776BB36
:101C700010BD00000054004080000020A08601003C
:101C800010B58EB000240794089409940A940B941C
:101C90001C2168460C94FEF797FA22484FF08041C9
:101CA00001604721C0E9011440F2E731C0E90314A3
:101CB0008461FFF719FB08B1FEF750FB4FF4805029
:101CC000079007A91748FFF74FFB08B1FEF746FB3F
:101CD0001448FFF741FC08B1FEF740FB0B940BA939
:101CE00010480C94FFF7CCFA08B1FEF737FB6020E0
:101CF000CDE900040294082269460A480494FFF7DB
:101D0000C5FB08B1FEF72AFB0C2269460548FFF720
:101D1000BDFB08B1FEF722FB0248FFF793FB0EB0B4
:101D200010BD0000D4000020FEE700002DE9F047C0
:101D30000B4640F2E7321146FFF7BCFE064611465D
:101D40001846FFF7B7FE264F264C05464FF40051C4
:101D50004FF480594FF00008002E0CDD4FF00102C7
:101D60003846FEF78FFC002249463846FEF78AFCCB
:101D7000206806640FE00BDA4FF000023846FEF7E9
:101D800081FC012249463846FEF77CFC704200E0A7
:101D90004046216808644FF480414E00002D0DDD5F
:101DA0004FF001023846FEF76DFC002231463846FE
:101DB000FEF768FC2068C563BDE8F0870BDA4FF0DA
:101DC00000023846FEF75EFC012231463846FEF737
:101DD00059FC684200E040462168C863ECE7000017
:101DE000000C0140D4000020FEE770470A6802F1B1
:101DF0001A03834201DA0B6005E01A3A824201DDE0
:101E00000A6000E00860086870470000034800218D
:101E10008164C164C163C1624163704700000020F6
:101E20007047FEF733BF30B58FB028216846FEF704
:101E3000CBF914210AA8FEF7C7F901210804CDE95E
:101E400000100024029402250491CDE907504FF4BC
:101E5000E01009906846FFF76FF860B90F20CDE9F0
:101E60000A056802CDE90C4002210AA80E94FEF78B
:101E700097FF002801D0FEF771FA0FB030BD704710
:101E8000F0B50268194B1A4C1A4D4FF08047984232
:101E900005D0B84203D0A04201D0A84203D122F01D
:101EA00070064A683243984205D0B84203D0A04237
:101EB00001D0A84203D122F44074CA6822434C697D
:101EC00022F08002224302608A68C2620A6882624B
:101ED000984201D109690163012141610169C90782
:101EE00003D0016921F001010161F0BD002C014026
:101EF000000400400008004010B501F01F0301215C
:101F0000046A99408C430462016A9A401143016259
:101F100010BD10B5846842EA032224F47F440A43CA
:101F20002243826010BD826822F070020A4342F0B0
:101F3000070181607047000030B5036A026A22F031
:101F4000010202624268846924F073050C682C4324
:101F500023F002058B682B430A4DA8420BD123F0D6
:101F60000805CB6822F440722B434D6923F004032B
:101F700015438A692A434260846149684163036268
:101F800030BD0000002C014030B5026A036A23F026
:101F900010030362436884690D6824F4E64444EA4C
:101FA00005248D6822F0200242EA05120B4DA8425A
:101FB0000ED1CD6822F0800242EA05124D6923F469
:101FC000406343EA85038D6922F0400243EA8503BA
:101FD0004360846149688163026230BD002C014026
:101FE00030B5036A026A22F4807202624268C469F0
:101FF00023F4007324F073050C682C438D6843EAC6
:1020000005230C4DA8420ED1CD6823F4006343EAAA
:1020100005234D6922F4405242EA05128D6923F4EA
:10202000806342EA05124260C4614968C163036289
:1020300030BD0000002C014030B5046A026A22F471
:10204000805202624268C3690D6823F4E64343EAA2
:1020500005238D6824F4005444EA0534064DA84253
:1020600004D14D6922F4804242EA85124260C36184
:1020700049680164046230BD002C014010B5036A58
:10208000046A24F001040462846924F0F00444EA40
:10209000021423F00A020A438461026210BD10B5E3
:1020A000036A046A24F010040462846923F0A00324
:1020B00024F4704444EA023243EA0111826101626D
:1020C00010BD00002DE9F05F88460446444D454FA1
:1020D0004549FFF7DCFCDFF81491C9F83000FEF742
:1020E000D6F8DFF80CA10646504502DD414D424FBF
:1020F00004E04248864201DD414D424F4FF4000169
:10210000414A8C4201DB904503D2944206D3884574
:1021100004DB3E49284600F001FD0546D9F83010A1
:102120004C468B46284600F0F9FC814638488642EA
:1021300007DA5846E16D00F0F1FC616B00F03CFB02
:1021400003E03449606B00F0E9FC4FF082416063CA
:10215000884203DC4FF04141884200D9616303218A
:10216000606B00F08AFE05462B48854202DC2B4856
:10217000854200D9054687F00040414600F0CEFC7C
:1021800004462748844202DC2648844200D904469B
:102190002946484600F010FB214600F00DFB00F0F8
:1021A00041FC21494FF4E6728E4201DA3C210FE0F6
:1021B0001E498E4201DA78210AE01D498E4201DA79
:1021C000DC2105E0564502DA4FF4AA7100E0114621
:1021D000FFF770FCBDE8F05F1146FFF76BBC000035
:1021E000000050416666663F00004041000000204C
:1021F0000000C0400000E0419A99993F0000204053
:10220000000090416666863F00008080CDCC0C3F88
:102210000000A0401F856B3F00005C4200005CC2D4
:1022200000000C4300000CC3CDCC4C3F6666E63F7B
:1022300000006040FEE74100080218BF04200A0EBB
:1022400018BF40F001004FF07F4232EA010108BFA1
:1022500040F00200012808BF052070470907090E59
:10226000002804DB00F1E02080F80014704700F043
:102270000F0000F1E02080F8141D704700F09CBAB8
:102280006FF05E01080700F0F8BD00002DE9F0478F
:102290004FF0684202EB40030C460546B3F1654F30
:1022A0003CBF02EB4102B2F1654F7CD2C0F3C75391
:1022B000C1F3C7529A1A1B2A06DD10F0004F14BF53
:1022C00076487748BDE8F08712F11A0F17DA11F057
:1022D000004F06D010F0004F0CBF72487248BDE8A6
:1022E000F0872146284600F0DBFA0446FFF7A3FFFB
:1022F000042808BFFFF7C4FF2046BDE8F08742006E
:10230000B2EB410F25D910F0004F19BF674F684E4F
:10231000684F694E224685F0004415460A4680F013
:10232000004110460A1A5200B2F1807F40D2484064
:102330006249DFF88CA110F0004F18D04FF03F48F1
:10234000384600F0F3FC07465146304600F0EEFCFC
:1023500017E011F0004F04BF00263746E2D010F01E
:10236000004F19BF574F584E584F594EDAE74FF0AC
:102370007C58384600F020FA07465146304600F0B7
:102380001BFA06464146284600F0C8FB214600F0ED
:1023900013FA82462146404600F0C0FB294600F071
:1023A000BAFC514600E037E000F07AFA044604E057
:1023B0002146284600F074FA0446014600F0AEFBC0
:1023C0008046444900F0AAFB434900F0F5F9414634
:1023D00000F0A4FB414900F0EFF9414600F09EFBFC
:1023E0003F4900F0E9F9414600F098FB3D4900F013
:1023F000E3F905464146204600F090FB294600F0EF
:102400008DFB314600F0D8F9214600F0D5F9394668
:10241000BDE8F04700F0D0B94FF07F42B2EB400F7B
:1024200028BFB2EB410F03D2BDE8F047FFF726BF4C
:1024300040EA01035B0008BF44F0FF410AD0B2EB61
:10244000400F08BFB2EB410F06D125F0804024F0C9
:10245000804105460C4629E7B2EB400F12BF5FEA08
:10246000410245F0FF4004F000413FF41FAF4A0035
:1024700092EA40033FF51AAF002AACBF4FF09F46E7
:102480004FF03E56314600F049FB054631462046A6
:1024900000F044FB04462846214607E7DB0FC9BF8E
:1024A000DB0FC93FDB0F4940DB0F49C00000C9BF4C
:1024B00022AAFDB90000C93F22AAFD390060ED3E05
:1024C000C30ACE37000049C022AA7DBA00004940A5
:1024D00022AA7D3A2DAD65BD8FB8D53D0FB511BE91
:1024E00061C84C3EA8AAAABEFEF7D8FBFFF79BFC2A
:1024F000FFF76EFBFFF7A4FBFFF7C2FB08219A482A
:10250000FFF758F80C219848FFF754F800210846C7
:10251000FFF70CFC4FF4FA70FDF726FF9348FEF727
:10252000BDF80A20FDF720FFFFF78AFB3220FDF7F8
:102530001BFFFFF7C7FA38B100210846FFF7F6FB8B
:102540006420FDF711FFFBE7FDF7A8FEFFF75EFC37
:10255000FEF79EF8864C2065FEF79AF8DFF8149295
:102560004FF400084FF07A57C4F85800FEF790F87F
:10257000A16D401A0528F9D3FEF78AF8A065FFF788
:10258000FBFA20B1FFF742FC00210846E9E0FEF724
:102590007FF805466065206D281A00F077FA7649C5
:1025A00000F07EF925657549E065A0F500008842D8
:1025B00001D37348E065B4F90A0000F04FFA05460C
:1025C000B4F9080000F04AFA2946FFF75FFE6D49AA
:1025D00000F0A4FA06466061B4F90C0000F03EFA7F
:1025E000694900F05DF9E16900F0A0FB824605460B
:1025F000A0616649304600F091FA06462846E16D32
:1026000000F08CFA216A00F0D7F8614900F086FAF0
:10261000314600F0D1F8054620625E49606A00F05C
:10262000CBF8294600F077FB5B490546A06288425B
:1026300002DC5A48854209D9FFF7E8FB0021084629
:10264000FFF774FB0520FDF78FFE8FE7E06A40453A
:1026500001DB4D4503D248451ED345451CDB504E9A
:10266000E06B314600F05AFAE063A06C00F0F6F936
:10267000314600F053FA00F0D5F9A064E06C00F0A8
:10268000EDF9314600F04AFA00F0CCF9E064314649
:10269000606B00F043FA606351462846E562FFF73D
:1026A00011FDA06300F0DAF93E4900F037FA054663
:1026B0003D49E06B00F032FA294600F07DF8E06316
:1026C00000F0B0F920644FF4E67319466064FFF738
:1026D000F1F920641946606CFFF7ECF96064A06AB8
:1026E000FDF7D5FD394688422DDDA06AFDF7CFFD07
:1026F00000F01CFB2D4900F011FA2D4900F0D0F834
:102700002C4900F059F800F08DF9302801DD302017
:1027100002E0122800DA1220216C002903DD814238
:1027200006DA206404E003DA4242914200DD2264CA
:10273000616C002903DD814205DA606403E002DA9E
:1027400040428142F9DC0A49206C4831FFF74EFBD8
:10275000074920644C31606CFFF748FB0146606418
:10276000206CFFF7E3FA01E7D4000020800000208E
:10277000000000200000808000007A44CECCCC3CD9
:102780000AD7A33BE62E6542000003438FC2753C87
:10279000F6287C3F9A9999BE00000842000008C2C2
:1027A0003333B33E3E0A573F0AD7233E0000F04181
:1027B000000020400000904190EA010F48BF81F0E6
:1027C000004100F1BA82421A3CBF801A89184FEAD0
:1027D000D0524FF07F4C1CEA410FA2EBD15318BFEF
:1027E0009CEA026F00F03B804FF0004C4CEA002066
:1027F0004CEA012121FA03FC10EB0C0C1ED202F171
:10280000FF325FEA1C2040EBC25038BF70471CF01B
:102810007F0F4FEA400C18BFBCF17F4F38BF7047A5
:10282000C3F12003994008BF20F00100BCF17F4FA5
:1028300038BF7047A0F1C04000F037BA4FEA3C0003
:10284000000A40EBC25028BF1CF0FF0F4FEA400CBB
:10285000E6D018BFBCF17F4F38BF7047EAE79CEA6B
:10286000026F05D010EA5C0F08BF00F0004070470F
:1028700010B500F0D4F900BF64FBBE3E014800F083
:10288000CABA00BF0000C07F401058BFC0F140402E
:10289000491058BFC1F140418142EFF300807047B9
:1028A0004FF47F0C1CEAD0121EBF1CEAD11392EA2F
:1028B0000C0F93EA0C0F00F0858090EA010F48BFDF
:1028C00042F4807240F4000C41F400002CF07F418F
:1028D00020F07F4000B58142A2EB03020FF2081CFA
:1028E000ACEB504EC0F100009EF800E04FEA4E0EF7
:1028F00000FB0EFC38BF49004FEA2C1C02F5FA021F
:102900000CFB0EF34FEACE1E4FEA112C4FEAC12109
:102910000EEB635E42EB22420EFB0CFC4FEA1C53B3
:1029200000FB03114FEA112C4FEA01310EFB0CFCA6
:102930004FEADC4C00FB0C11C14228BF09184CEBDC
:1029400003335DF804EB10EB410143EBC250B2F5E9
:102950007C0F38BF704729D512F0F00F1CBF00F173
:10296000C04000F0004070470081828384858687E4
:1029700088898B8C8D8E8F919293959697999A9C3E
:102980009D9FA0A2A3A5A7A8AAACAEB0B2B3B5B7AD
:10299000B9BCBEC0C2C5C7C9CCCED1D4D7D9DCDF83
:1029A000E2E6E9ECF0F3F7FAFE0000004FEA400C33
:1029B0000CF1807CBCF17E4F28BF7047B0F1C04065
:1029C00000F073B990EA010F0CEAD11348BF42F44A
:1029D0008072624538BF634507D213F47F0F16D06B
:1029E00080EA010000F00040704710B500F017F9D0
:1029F000097EFC3E00F005B880EA010000F00040CE
:102A0000704780EA010000F0004000F04EB912F477
:102A10007F0F04BF0248704780EA010000F045B90B
:102A20000000C07F41000B0ED3F19E0208D950F484
:102A300000034FEA032323FA02F048BF40427047E5
:102A400010B500F0ECF800BF4992248000207047D8
:102A50006FF0004282EA20007047000010F0004151
:102A600048BF4042B0FA80F310FA03F2C3F19D036D
:102A70000BD051EAC35101EB1220530638BF704707
:102A800000F1010008BF20F001007047B0FA80F3A8
:102A900010FA03F2C3F19D030AD0D90501EB12200D
:102AA000530638BF704700F1010008BF20F0010055
:102AB0007047000050EA010C00F113801CF5000F74
:102AC00058BFBCF5000F01D48842704707D710F5F6
:102AD000000F58BF11F5000F15D488427047894286
:102AE00070471CF5000F04D5BCF5000FF7D58142E7
:102AF00070474FF0807C1CEB400F38BF1CEB410F40
:102B000001D28142704710B500F089F89224490043
:102B10004FF000504FF08051FFF7B6BE4FF47F0CDE
:102B20001CEAD0121EBF1CEAD11392EA0C0F93EAE2
:102B30000C0F00F0478090EA010F48BF42F480720A
:102B40004FF0004C4CEA00204CEA012102EB03025A
:102B5000A0FB0113A2F50002002918BF43F00103F6
:102B60005B0028BF4FEA330342EB22425FEA132C9B
:102B70004CEBC2502EBFBCEB436FB2F57C0F7047DD
:102B80004FEA036CBCF1004F08BF20F00100B2F522
:102B90007C0F38BF70470BD582F0FF0212F5803FE3
:102BA000C8BF704700F1C040D8BF00F00040704778
:102BB00000F5000C5FEA4C0C48BF7047B0F1C04014
:102BC00000F073B890EA010F0CEAD11348BF42F449
:102BD0008072624538BF634504D280EA010000F08C
:102BE0000040704710B500F01AF800BF8900013EA0
:102BF00000F007B800F009B85FEA410C5FEA1C6C0E
:102C000008D080EA010000F050B85FEA400C5FEAAB
:102C10001C6CF6D14FF00040A0F5800070470EF11B
:102C2000020E2EF0030E5EF8044B244204D44FEA49
:102C30004102B2F17F4F11D84FEA4003B3F17F4F09
:102C40000CD80ED14FEAD07CB2F17F4F0CEB4C0C7C
:102C50000CF1020C08BF4CEBD17C04E04FF0080CE7
:102C600001E04FEAD17C0CEB4C0324FA03F404F0AE
:102C70000704B4F1040C06D20EEB840CBDE810403E
:102C80004CF0010C6047DFE80CF0070802024FF03F
:102C90000040A0F5800010BD0846420018BFD2F1E8
:102CA000807288BF00F0004010BDFF2141EAD05083
:102CB000C005704751EA000C00F113801CF5000FAD
:102CC00058BFBCF5000F01D48142704707D711F5FA
:102CD000000F58BF10F5000F15D48142704789428C
:102CE00070471CF5000F04D5BCF5000FF7D58842DE
:102CF00070474FF0807C1CEB410F38BF1CEB400F3E
:102D000001D28842704780EA010081EA000180EA2E
:102D10000100FFF7F8BE80F0004090EA010F7FF558
:102D200052AD81F0004100F008B8000090EA010FB8
:102D300048BF81F000413FF546AD421A04D882F009
:102D40000042A0EB020011444FEAD0524FF07F4CFA
:102D50001CEA410FA2EBD15318BF9CEA026F4AD084
:102D60004FF0004C4CEA00204CEA012121FA03FC10
:102D7000B0EB0C0C0FD412F0FE0F36D05FEA4C0013
:102D80001DD5001240EBC25038BF70471CF03F0FFA
:102D900018BF70470BE0A2F101025FEA1C2040EB74
:102DA000C25038BF70471CF07F0F18BF7047C3F187
:102DB0002003994014BF401E20F001007047800896
:102DC0004FEA122308BF7047B0FA80FCA2EB0C0256
:102DD000CCF1280C60FA0CF093EA122F04BF00EB40
:102DE000C25070474FEAC3707047130A5FEADC10A5
:102DF00008BF7047F6E79CEA026F04D010EA5C0F48
:102E000008BF0020704710B5FFF709FF40DFF63E0E
:102E100081F0004070470CF00F03092B08BF082019
:102E200000F051800A2B0BD0082B18BF704708BF49
:102E30001CF0400F0AD04FF000004FF00001704727
:102E40001CF0400F18BF4FF0004070471CF0100FEF
:102E500008D020F0704300F07F4242EAD3014FEAED
:102E60004370704700F0604021F07F4242EA000268
:102E700001F07F4040EA727070474FF0FF0212EAA3
:102E8000D0521CBF92F0FF038B42C2BFD14200EB75
:102E9000C1507047002A0AD0002B0BD0002900F047
:102EA0000040A4BF40F0FE4040F40000704700F036
:102EB0000040704743024FF00B0C18BF4CF0806C81
:102EC0007FF4DCAC70471CF4801F11D01CF4E02FA1
:102ED00003D06FEACC31490070474FF04050EFF318
:102EE000008222F0704242EA000282F300887047BA
:102EF0004FF00000704701020203040506070809AD
:102F00000A0B0C0D0E0F1010000000000000000056
:102F1000010203040607080900000000010203047F
:102F2000402F000800000020700000002801000869
:102F3000B02F000870000020A00700004401000826
:102F40000000000000000000000000000000000081
:102F50000000000000000000000000000000000071
:102F60000000000000000000000000000000000061
:102F70000000000000000000000000000000000051
:102F80000000000000000000000000000000000041
:102F90000000000000000000000000000AD7A33B72
:102FA00001000000100000000000000000127A0084
:04000005080000ED02
:00000001FF
