:020000040800F2
:10000000B0070020890100083D0E0008DD0B000844
:100010009D0D00088F020008A710000800000000D6
:100020000000000000000000000000005D0E00085D
:1000300091020008000000003F0E00085F0E00085B
:10004000A3010008A3010008A3010008A301000800
:10005000A3010008A3010008A3010008A3010008F0
:10006000A3010008A3010008A3010008A3010008E0
:10007000A3010008A3010008A3010008A3010008D0
:10008000A3010008A3010008A3010008A3010008C0
:10009000A3010008A3010008A3010008A3010008B0
:1000A000A3010008A3010008A3010008A3010008A0
:1000B000A3010008A3010008A3010008A301000890
:1000C000A3010008A3010008A3010008A301000880
:1000D000A3010008A3010008A3010008A301000870
:1000E000A3010008A3010008A301000800F002F822
:1000F00000F03AF80AA090E8000C82448344AAF188
:100100000107DA4501D100F02FF8AFF2090EBAE885
:100110000F0013F0010F18BFFB1A43F0010318473B
:100120002C1000004C100000103A24BF78C878C191
:10013000FAD8520724BF30C830C144BF04680C60ED
:10014000704700000023002400250026103A28BF35
:1001500078C1FBD8520728BF30C148BF0B60704739
:100160001FB51FBD10B510BD00F058F81146FFF7C0
:10017000F7FF00F0A9FF00F076F803B4FFF7F2FFF5
:1001800003BC00F07DF8000009488047094800479B
:10019000FEE7FEE7FEE7FEE7FEE7FEE7FEE7FEE737
:1001A000FEE7FEE704480549054A064B7047000094
:1001B000630E0008ED000008B0010020B007002029
:1001C000B0030020B00300204FF0000200B513463A
:1001D00094469646203922BFA0E80C50A0E80C5067
:1001E000B1F12001BFF4F7AF090728BFA0E80C5018
:1001F00048BF0CC05DF804EB890028BF40F8042B11
:1002000008BF704748BF20F8022B11F0804F18BF7D
:1002100000F8012B7047704770477047754600F033
:100220002BF8AE4605006946534620F00700854688
:1002300018B020B5FFF7B6FFBDE820404FF000062C
:100240004FF000074FF000084FF0000B21F00701BE
:10025000AC46ACE8C009ACE8C009ACE8C009ACE801
:10026000C0098D46704710B50446AFF300802046A4
:10027000BDE81040FFF781BF0048704750010020E3
:1002800001491820ABBEFEE7260002007047FEE7DA
:100290007047FEE770B5044600F008F90546601C9B
:1002A00002D004480078044400F000F9401BA0424A
:1002B000FAD370BD140000202DE9F84FDFF8B89193
:1002C0000024A9F1040B23460F2709F1040AABF11E
:1002D000040EC9E00125A5402A40AA427DD1674EFF
:1002E000D1F804C0ACEB0608B44532D014DCBCF144
:1002F000030F3AD009DCBCF1000F2AD0BCF1010F8A
:100300001CD0BCF1020F31D11DE0BCF1110F17D090
:10031000BCF1120F2AD119E0B8F5881F19D006DCFC
:10032000B8F5803F15D0B8F5801F1FD111E0B8F5A2
:10033000001F0ED0B8F5041F18D10AE0CB6815E0F5
:10034000CB681B1D12E0CB6808330FE0CB680C3381
:100350000CE08B682BB1012B4FF0080303D04561F3
:1003600004E0042302E0056100E00023FF2A01D835
:10037000064601E000F104064FEA840501D9A5F123
:100380002005D6F8008007FA05FC28EA0C0803FAD5
:1003900005F548EA0508C6F800804D68ED0062D50D
:1003A000374DAE6946F00106AE61AD6924F0030633
:1003B00005F001050095334D06EB050CDCF80850FF
:1003C000A607360F07FA06F825EA0805DFF8B88011
:1003D000404503D14FF0000817E044E0DFF8AC805F
:1003E000404502D14FF001080FE0DFF8A4804045FE
:1003F00002D14FF0020808E0DFF89880404502D1B2
:100400004FF0030801E04FF0040808FA06F848EA44
:100410000508CCF808804D68D9F80060ED024D461B
:1004200001D5164300E096432E604D68DAF800606F
:10043000AD02554601D5164300E096432E604D6847
:10044000DBF80060AD035D4601D5164300E096433E
:100450002E604D68DEF80060ED03754601D5164349
:1004600000E096432E60641C0D682A46E5407FF448
:1004700031AFBDE8F88F0000080401400000111002
:10048000001002400000014000080140000C014043
:1004900000100140001401408068084000D0012095
:1004A00070470AB1016170470904FBE701488068A1
:1004B000704700001400002070B5040025D094F8A7
:1004C0003D00002520B984F83C50204600F0B8F8E3
:1004D000242084F83D002068016821F001010160BA
:1004E0002068016841F4004101602068016821F43E
:1004F0000041016000F066F94D4A6168914201D8FF
:100500004C4900E04C49884201D2012070BD4B4962
:100510002368B0FBF1F15E6826F03F060E435E6093
:100520006368934206D94FF4967359434FF47A7334
:10053000B1FBF3F12368491C1E6A26F03F063143E4
:1005400019626168914210D84900401EB0FBF1F277
:10055000521CC2F30B02042A01D2042022E0B0FB99
:10056000F1F0401CC0F30B001CE0A268F2B301EBF9
:10057000C10303EB0116431EB3FBF6F35B1C43F40C
:1005800080431B0549D092B301EBC10202EB01117C
:10059000401EB0FBF1F0401CC0F30B0040F4804063
:1005A00040F400402168CA694CF6FF739A43104337
:1005B000C861D4E9071001432068026822F0C00234
:1005C00011430160D4E9030101432068826848F2C5
:1005D000FF339A4311438160D4E905010843216840
:1005E000CA6822F0FF021043C86001E00EE016E086
:1005F0002068016841F0010101602564202084F831
:100600003D00256384F83E50002070BD01EB41069B
:10061000431EB3FBF6F35B1CB3E70120C2E701EB1B
:100620004101401EB0FBF1F0401CC0F30B00B7E7E6
:10063000A086010080841E0000093D0040420F009A
:1006400010B586B0002100910191029103910068DC
:100650001349884222D1134CA06940F00800A061E0
:10066000A069694600F0080004904FF440700090C3
:1006700012200190032003900B48FFF71DFE0B484A
:10068000416841F0E06141F002014160E06940F4FD
:100690000010E061E06900F40010049006B010BDA5
:1006A0000054004000100240000C014000000140D6
:1006B000024881680278114481607047140000206C
:1006C000074810B5016841F010010160032000F0F7
:1006D00067F80F2000F006F800F024F8002010BDA5
:1006E0000020024070B50D4D04464FF47A71287811
:1006F000B1FBF0F00A490968B1FBF0F000F072F8C4
:1007000048B9102C07D200222146501E00F028F8CC
:1007100000206C6070BD012070BD0000140000203E
:10072000200000200C4808B5816941F00101816179
:10073000816901F001010091C16941F08051C161FD
:10074000C06900F0805000900448416821F0E061E9
:1007500041F00071416008BD0010024000000140FE
:10076000F0B40E4B1B680C46C3F30223C3F107051C
:10077000042D00D90425191D072901D2002300E00A
:10078000DB1E012606FA05F1491E214099409E40D4
:10079000761E16403143F0BC00F086BC0CED00E044
:1007A000064900F0070208684FF6FF03184040EAC8
:1007B0000220034A10430860704700000CED00E07F
:1007C0000000FA050448054900684968044AC1F375
:1007D0000221515CC84070472000002000100240F8
:1007E0004411000810B5401EB0F1807F01D30120F4
:1007F00010BD4FF0E02460610F21601700F054FC41
:100800000020A06107202061002010BD70B590F885
:100810003C20012A26D0012480F83C40022280F8A6
:100820003D2003685A689D6822F070060A683243CA
:100830005A600D4B02689A4208D0B2F1804F05D041
:100840000A4B9A4202D00A4B9A4204D1496825F0D9
:1008500080031943916080F83D40002180F83C10EE
:10086000084670BD022070BD002C0140000400400D
:100870000008004010B5040003D094F83D0010B10A
:1008800007E0012010BD002084F83C00204600F065
:100890001FF8022084F83D00211D206800F0E2FAD4
:1008A000012084F8460084F83E0084F83F0084F874
:1008B000400084F8410084F8420084F8430084F842
:1008C000440084F8450084F83D00002010BD00007D
:1008D00008B50068B0F1804F08D10548C16941F002
:1008E0000101C161C06900F00100009008BD000075
:1008F0000010024070B5044690F83C000025012825
:1009000017D0012684F83C60022084F83D0020685E
:10091000826822F0770222F47F42826008685028C1
:1009200038D00DDC20284FD005DC90B3102811D131
:100930004AE0022070BD302846D040280AD13BE072
:1009400060282FD070280DD0B0F5805F03D0B0F5AF
:10095000005F12D0012584F83D60002084F83C003F
:10096000284670BDCB68D1E90121206800F0C3FAA8
:100970002068816841F0770109E0CB68D1E9012165
:10098000206800F0B8FA2068816841F480418160F5
:10099000E1E719E0CA684968206800F061FB50216E
:1009A000206806E0CA684968206800F06AFB602198
:1009B000206800F0AAFACEE7CA684968206800F00B
:1009C0004FFB40212068F4E7226801461046F0E71B
:1009D00000B585B00021009101910291039100685A
:1009E000B0F1804F11D10A48816941F00401816161
:1009F0008069694600F0040004900C2000900220F9
:100A0000019003900348FFF757FC05B000BD0000BC
:100A1000001002400008014070B5044690F83C0008
:100A200000260D4601280FD0012084F83C006AB151
:100A3000042A1DD0082A2FD00C2A3FD001260020DE
:100A400084F83C00304670BD022070BD206800F084
:100A500065FA2068816941F0080181612068816937
:100A600021F004018161206881692A69114311E044
:100A7000206800F07BFA2068816941F4006181619F
:100A80002068816921F480618161206881692A6917
:100A900041EA02218161D2E7206800F093FA2068E0
:100AA000C16941F00801C1612068C16921F00401F8
:100AB000C1612068C1692A69114311E0206800F012
:100AC000ADFA2068C16941F40061C1612068C16963
:100AD00021F48061C1612068C1692A6941EA02216B
:100AE000C161ACE710B5040003D094F83D0010B12B
:100AF00007E0012010BD002084F83C00204600F0F3
:100B00001EF8022084F83D00211D206800F0AAF99B
:100B1000012084F8460084F83E0084F83F0084F801
:100B2000400084F8410084F8420084F8430084F8CF
:100B3000440084F8450084F83D00002010BD704753
:100B400010B50446022249B104290ED0082913D059
:100B500094F84100012816D0012010BD94F83E0001
:100B60000128F9D184F83E200FE094F83F000128D5
:100B7000F2D184F83F2008E094F840000128EBD13E
:100B800084F8402001E084F841200122206800F030
:100B9000A5F90F492068884203D1426C42F4004213
:100BA00042642068884208D0B0F1804F05D00949DE
:100BB000884202D00849884204D1816801F00701C7
:100BC000062903D0016841F001010160002010BD39
:100BD000002C01400004004000080040FEE788426D
:100BE00002DC4942884200DA0846704770B5134D6E
:100BF00001212846FFF750FC114C022120702846A5
:100C0000FFF74AFC6070217851EA000206D0FA2210
:100C10006FF09503012903D031B107E0C82006E049
:100C200020B9C4E9012370BD012803D064206060AD
:100C3000A06070BDC4E9013270BD0000000C01402D
:100C40000000002070B586B000241848009401947C
:100C500002940394816941F020018161816901F06E
:100C600020010491816941F004018161816901F0F1
:100C700004010491816941F00801816180690C4E91
:100C800000F008004FF470450490002229463046D9
:100C9000FFF707FC01200095CDE901040220039035
:100CA00069463046FFF708FB06B070BD00100240F1
:100CB000000C01400D4810B50B4901600C49416022
:100CC00000214FF480428160C0E9031241618161DB
:100CD000C1610162FFF7F0FB002803D0BDE81040BE
:100CE000FFF7D7BA10BD00000054004024000020D8
:100CF000A086010010B58EB00024079408940994D2
:100D00000A940B941C2168460C94FFF75DFA224864
:100D10004FF0804101604721C0E9011440F2E73102
:100D2000C0E903148461FFF7A5FD08B1FFF7B1FA2C
:100D30004FF48050079007A91748FFF7DBFD08B173
:100D4000FFF7A7FA1448FFF7CDFE08B1FFF7A1FAA5
:100D50000B940BA910480C94FFF758FD08B1FFF74E
:100D600098FA6020CDE900040294082269460A48F6
:100D70000494FFF751FE08B1FFF78BFA0C22694685
:100D80000548FFF749FE08B1FFF783FA0248FFF76D
:100D90001FFE0EB010BD000078000020FEE700002E
:100DA0002DE9F0410B464FF448721146FFF717FF4B
:100DB000064611461846FFF712FF4FF400514F1038
:100DC0001C4D0446002E25DD4FF001022846FFF79A
:100DD00068FB002239462846FFF763FB002E00DA45
:100DE0007642154F386806644FF480414E00002C5F
:100DF00018DD4FF001022846FFF753FB0022314671
:100E00002846FFF74EFB002C00DA64423868C463C2
:100E1000BDE8F0814FF00002D8DA2846FFF741FB29
:100E20000122D7E74FF00002E5DA2846FFF739FB49
:100E30000122E4E7000C014078000020FEE7704743
:100E40000A68131D834201DA0B6005E0121F82421B
:100E500001DD0A6000E00860086870477047FFF72E
:100E600027BC7047F0B50268194B1A4C1A4D4FF069
:100E70008047984205D0B84203D0A04201D0A84292
:100E800003D122F070064A683243984205D0B84236
:100E900003D0A04201D0A84203D122F44074CA6812
:100EA00022434C6922F08002224302608A68C262B7
:100EB0000A688262984201D1096901630121416196
:100EC0000169C90703D0016921F001010161F0BD89
:100ED000002C0140000400400008004010B501F063
:100EE0001F030121046A99408C430462016A9A40FD
:100EF0001143016210BD10B5846842EA032224F454
:100F00007F440A432243826010BD826822F070024F
:100F10000A4342F0070181607047000030B5036A60
:100F2000026A22F0010202624268846924F07305B9
:100F30000C682C4323F002058B682B430A4DA84212
:100F40000BD123F00805CB6822F440722B434D6986
:100F500023F0040315438A692A4342608461496887
:100F60004163036230BD0000002C014030B5026ACD
:100F7000036A23F010030362436884690D6824F454
:100F8000E64444EA05248D6822F0200242EA051274
:100F90000B4DA8420ED1CD6822F0800242EA051224
:100FA0004D6923F4406343EA85038D6922F04002D2
:100FB00043EA85034360846149688163026230BD0E
:100FC000002C014030B5036A026A22F4807202628A
:100FD0004268C46923F4007324F073050C682C4341
:100FE0008D6843EA05230C4DA8420ED1CD6823F449
:100FF000006343EA05234D6922F4405242EA051298
:101000008D6923F4806342EA05124260C461496835
:10101000C163036230BD0000002C014030B5046A9A
:10102000026A22F4805202624268C3690D6823F4A6
:10103000E64343EA05238D6824F4005444EA05346A
:10104000064DA84204D14D6922F4804242EA85123D
:101050004260C36149680164046230BD002C0140F4
:1010600010B5036A046A24F001040462846924F060
:10107000F00444EA021423F00A020A438461026283
:1010800010BD10B5036A046A24F010040462846978
:1010900023F0A00324F4704444EA023243EA01112D
:1010A0008261016210BDFEE70907090E002804DB1A
:1010B00000F1E02080F80014704700F00F0000F10C
:1010C000E02080F8141D7047FFF7FAFAFFF7BAFD29
:1010D000FFF710FEFFF7EEFD08211848FFF730FD7F
:1010E0000C211648FFF72CFD00210846FFF758FE9B
:1010F0004FF47A70FFF7CEF84B25114CFFF776FDD1
:101100006068401E4A2800D26560A068401E4A28D8
:1011100000D2A5600A4960680C31FFF791FE0849CA
:1011200060601031A068FFF78BFE0146A060606828
:10113000FFF736FE0520FFF7ADF8DFE77800002067
:101140000000002000000000010203046C110008F0
:101150000000002024000000280100089011000871
:10116000240000208C07000044010008000000005B
:10117000000000000000000000000000000000006F
:1011800001000000100000000000000000127A00C2
:04000005080000ED02
:00000001FF
